:100000000C9434000C9449000C9449000C94490061
:100010000C9449000C9449000C9449000C9449003C
:100020000C9449000C9449000C9449000C9449002C
:100030000C9449000C9449000C9449000C9449001C
:100040000C9449000C9449000C9449000C9449000C
:100050000C9449000C9449000C9449000C944900FC
:100060000C9449000C94490011241FBECFEFD8E036
:10007000DEBFCDBF12E0A0E0B1E0EEEFF5E002C0E0
:1000800005900D92AA31B107D9F70E947D020C9418
:10009000FD020C94000080E091E00E9495010E9416
:1000A0008E018FE491E00C949501CF93DF93C82FDC
:1000B000D62F8AE191E00E9495018D2F0E94D401F4
:1000C0008FE491E00E9495018C2F90E002C09595FD
:1000D0008795DA95E2F781709927009781F485E397
:1000E00091E00E9495018FEC97E00197F1F700C035
:1000F00000008AE391E0DF91CF910C949501EFEC41
:10010000F7E03197F1F700C00000E7CF0F931F939E
:10011000CF93DF93082F162F82E591E00E9495017F
:10012000812F0E94D4018FE491E00E949501812FDC
:1001300090E0C02FD0E002C0959587950A95E2F730
:10014000817099270097F1F78CE691E00E94950164
:100150008FE791E00E94950102C0D595C7951A9549
:10016000E2F7C170DD272097F1F381E991E0DF919B
:10017000CF911F910F910C9495011F93CF93DF9313
:10018000182F0E94D40185EA91E00E94950185B163
:10019000C1E0D0E0012E01C0CC0F0A94EAF78C2B0D
:1001A00085B98FEF99E628E1815090402040E1F732
:1001B00000C00000812F0E94D4018BEA91E00E94D0
:1001C000950185B1C095C823C5B98FEF99E628E19F
:1001D000815090402040E1F700C00000DF91CF91B6
:1001E0001F9108958930A0F4E82FF0E0E450FF4F0C
:1001F00080917C000C94F7020601050109010B01B6
:100200000D010F01110113011501816080937C0024
:1002100008958260FBCF8360F9CF8460F7CF85605B
:10022000F5CF8660F3CF8760F1CF8860EFCF803164
:10023000F1F058F4843099F08830A9F0823021F43C
:1002400080917A0080937A0008958034A1F08038FC
:10025000B1F08032C9F780917A008560F3CF809148
:100260007A008260EFCF80917A008360EBCF80913B
:100270007A008460E7CF80917A008660E3CF809136
:100280007A008760DFCFCF93C62F0E94F2008C2FB9
:100290000E941701ECE7F0E0808180648083EAE748
:1002A000F0E0808180688083CF910895CF93DF93C1
:1002B0000E94F200CCE7D0E088818064888380E2ED
:1002C0000E941701888180628883EAE7F0E08081DC
:1002D0008860808380818068808380818062808361
:1002E000808180648083DF91CF9108951092C50052
:1002F00083E38093C400E0ECF0E080818D7F808315
:1003000088E18093C10086E08093C20008959091B7
:10031000C00095FFFCCF8093C60008958091C00077
:1003200087FFFCCF8091C60008950F931F93CF9352
:100330008C01C0E0F801EC0FF11D8081811104C037
:10034000CF911F910F9108950E948701CF5FF2CF47
:10035000CF92DF92EF92FF920F931F93CF93DF9391
:100360006C0110E0862F8150990BEC01812F90E0F9
:100370007601E80EF91E8C179D073CF40E948E0151
:10038000082F0E9487010D3059F4F7011082DF9188
:10039000CF911F910F91FF90EF90DF90CF90089534
:1003A000F70100831F5FE2CFCF93C82F64E60E945E
:1003B000D702805D0E9487012AE08C2F622F0E9465
:1003C000D702C92F0E94D70280E3890F0E948701BC
:1003D00080E38C0FCF910C9487010F931F93CF93E1
:1003E000DF938C0160E177E20E94E30280E3860FF5
:1003F0000E948701C80168EE73E00E94E302CB010E
:10040000CAE0D0E0BE010E94E302805D0E94870145
:10041000C80164E670E00E94E302CB01BE010E94C5
:10042000E302805D0E948701C801BE010E94E302D1
:10043000182FCB01BE010E94E302805D0E9487015C
:1004400080E3810FDF91CF911F910F910C94870171
:100450000F931F93CF93DF93C7E0D0E0082F10E0F6
:10046000C8010C2E02C0959587950A94E2F780FF8B
:100470000AC081E30E948701219790F7DF91CF9115
:100480001F910F91089580E3F5CF8A3010F4805DBD
:100490000895895C0895CF93C82F82958F700E942C
:1004A00045020E9487018C2F8F700E944502CF91D8
:1004B0000C9487010F931F93CF93DF93C0E3D0E396
:1004C00010E30E948E01082F0E9487010D3089F4ED
:1004D000105380ED8C0F94E6199F800D1124D0539A
:1004E0009AE0D99F800D1124DF91CF911F910F9138
:1004F00008951D2FDC2FC02FE4CF0E94760160E20B
:1005000080E00E94430182EB91E00E9495010E94ED
:100510004B00CFE082ED91E00E949501C4B980E0EC
:100520000E94BD0081E00E94BD0082E00E94BD00EB
:1005300083E00E94BD0083EE91E00E94950181EF6F
:1005400091E00E94950185B1806385B988B186608C
:1005500088B984B18F7C84B987B187B983B164E0ED
:100560000E9455000E944B0083B165E00E94550037
:100570000E944B0086B161E00E9455000E944B0032
:1005800086B162E00E9455000E944B0085E092E037
:100590000E94950188B1886388B98BB18C678BB94B
:1005A00088B163E00E9486000E944B00B3CF991B84
:1005B00079E004C0991F961708F0961B881F7A955A
:1005C000C9F780950895AA1BBB1B51E107C0AA1F5C
:1005D000BB1FA617B70710F0A61BB70B881F991FE4
:1005E0005A95A9F780959095BC01CD010895EE0F1D
:0E05F000FF1F0590F491E02D0994F894FFCFC1
:1005FE000D0A507265737320456E74657220746FA8
:10060E0020436F6E74696E7565005072657373204A
:10061E00627574746F6E20636F6E6E65637465645D
:10062E0020746F200070696E6700427574746F6E6F
:10063E002070726573732064657465637465640DF0
:10064E000A00466C69702053776974636820636F83
:10065E006E6E656374656420746F200053776974E1
:10066E006368207475726E6564206F6E0D0A005497
:10067E0075726E20737769746368206F66660D0AF3
:10068E0000537769746368207475726E6564206FA9
:10069E0066660D0A00204F6E0D0A00204F66660D2D
:1006AE000A000D0A57656C636F6D6520746F2042EA
:1006BE00757379426F617264205465737465720D3F
:1006CE000A005374617274204C454420546573744F
:1006DE000D0A004C454473207465737465640D0AED
:1006EE0000537461727420427574746F6E20546579
:1006FE0073740D0A005374617274205377697463B6
:0A070E006820546573740D0A0000A2
:00000001FF
